S00D00006C63645F432E7372656342
S113000071C0000086C0000084C0000082C00000EF
S113001080C000007EC000007CC000007AC00000E8
S113002078C0000076C0000074C0000072C00000F8
S113003070C000006EC000006CC000006AC0000008
S113004068C0000066C0000064C0000062C0000018
S113005060C000005EC000005CC000005AC0000028
S113006058C0000056C0000054C0000052C0000038
S113007050C000004EC000004CC000004AC0000048
S113008048C0000046C0000044C0000042C0000058
S113009040C000003EC000003CC000003AC0000068
S11300A038C0000036C0000034C0000032C0000078
S11300B030C000002EC000002CC000002AC0000088
S11300C028C0000026C0000024C0000022C0000098
S11300D020C000001EC000001CC000001AC00000A8
S11300E018C0000011241FBECFEFD1E2DEBFCDBF88
S11300F000E00CBF12E0A0E0B2E0E2E0F3E000E0D8
S11301000BBF02C007900D92A237B107D9F7C5D033
S1130110F6C076CFE2E0F1E090819F7E9083882361
S11301201CF4908190619083E2E0F1E09081977FEC
S1130130908386FF03C0908198609083739885FDB7
S1130140739AA59884FDA59AE2E0F1E08081806429
S1130150808385E08A95F1F7000080818F7B80831E
S11301600895CF93C82FE2E0F1E080818F7D8083F2
S11301708C2FD0DF8C2F8295807FCCDF87EC90E0B2
S11301800197F1F700C00000C43018F0C03850F0F7
S113019007C08FE39FE10197F1F700C00000C0E8BA
S11301A0C0930002CF910895CF93C82FE2E0F1E00D
S11301B08081806280838C2FADDF8C2F8295807F3D
S11301C0A9DF87EC90E00197F1F700C0000080916F
S11301D000028F5F80930002803921F0803D21F47A
S11301E080E801C080ECBDDFCF910895CF93DF9309
S11301F0EC018881882329F02196D6DF8991811129
S1130200FCCFDF91CF9108959D9A6B9AE1E0F1E0E4
S11302108081886080838081806180838081806226
S11302208083808180648083E2E0F1E080818F7B41
S1130230808380818F7D80838FE59AEE0197F1F72B
S113024000C0000080E366DF8FE090E40197F1F7DF
S113025000C0000080E35EDF8FE891E00197F1F7D2
S113026000C0000080E356DF87EC90E00197F1F7CF
S113027000C0000080E24EDF87EC90E00197F1F7C8
S113028000C0000088E26DDF88E06BDF81E069DF99
S113029086E067DF8CE065CF0895CF93DF93CDB719
S11302A0DEB7C456D1090FB6F894DEBF0FBECDBF7A
S11302B0ABDF82E856DF85E692E098DF89EC51DF18
S11302C088E0E1E0F2E0DE01119601900D928A955A
S11302D0E1F7FE0139968CE5DF011D928A95E9F775
S11302E0CE01019683DF80E090E0CC59DF4F0FB65A
S11302F0F894DEBF0FBECDBFDF91CF910895F8947F
S1050300FFCF29
S113030280435343203233300000000000000000D9
S113031200000000000000000000000000000000D7
S113032200000000000000000000000000000000C7
S113033200000000000000000000000000000000B7
S113034200000000000000000000000000000000A7
S11303520000000000000000000000000000000097
S1130362000000000048656C6C6F20576F726C646B
S1050372000085
S9030000FC
