:020000020000FC
:1000000001E200935E000FEF00935D000FEF00939D
:100010000A010093240000E00093060201E000932F
:1000200007020E9429000E944F000E943800409160
:10003000060250910702450F40930602403011F42A
:100040000E944700453011F40E9447000E947B0047
:10005000EACF0F93E0E0F2E000E8008300E20183E2
:1000600008E00283048302E0038305830F9108956F
:10007000609106026030D9F06130F9F0623019F118
:10008000633039F1643059F1653079F108957F9327
:10009000709107027195709307027F9108950F93F5
:1000A00000270093250000930B010F910895009104
:1000B0000B0100E800930B01E9CF00910B0100E276
:1000C00000930B01E3CF00910B0108E000930B01BB
:1000D000DDCF00910B0102E000930B01D7CF00911F
:1000E0000B0108E000932500D1CF0091250002E02C
:1000F00000932500CBCF0F931F932F933F934F93E4
:100100005F9300E814E82EE130E041E050E0041B8A
:10011000150B250B350BC9F75F914F913F912F912F
:060120001F910F910895EC
:00000001FF
