:020000020000FC
:040000000C947400E8
:04005C000C9473018C
:1000E80001E200933E000FEF00933D000FEF0093F5
:1000F800040000930A0108E00093250007E8009334
:100108007A0000E400937C0078940E94CE0070E0AE
:1001180080E030E021E060E0703019F00E942901B1
:1001280002C00E94DD0000917A00006400937A000A
:1001380000917A000074E1F7A0917800B0917900FD
:1001480042E350E04A175B07A8F443EC50E04A1733
:100158005B0790F44CE751E04A175B0778F44BE2F1
:1001680052E04A175B0760F446E153E04A175B0721
:1001780048F40FC070E00DC031E00BC030E009C09A
:1001880071E007C0603009F011F461E002C060E07E
:1001980000C0C2CF0F9300E00093240005E0009355
:1001A800250001E000936E0001E0009315000F9117
:1001B80008950F934F935F93803059F0813089F001
:1001C8008230B9F08330E9F0843019F1853049F193
:1001D80030C00E9421010091250002600093250093
:1001E80028C00E9421010091250008600093250085
:1001F80020C00E94210100910B01026000930B01B5
:1002080018C00E94210100910B01086000930B01A6
:1002180010C00E94210100910B01006200930B01A4
:1002280008C00E94210100910B01006800930B0196
:1002380000C05F914F910F9108950F9300E00093D4
:100248000B01009325000F9108950F934F935F932F
:10025800803059F0813091F08230C9F0833001F15B
:10026800843039F1853071F136C00E94210108E0EF
:10027800009325000AEA00930B012DC00E9421017A
:1002880002E0009325000AEA00930B0124C00E94B3
:1002980021010AE00093250008EA00930B011BC026
:1002A8000E9421010AE00093250002EA00930B0155
:1002B80012C00E9421010AE0009325000AE8009379
:1002C8000B0109C00E9421010AE0009325000AE2FF
:1002D80000930B0100C05F914F910F9108950F9308
:1002E80000913F000F931F934F935F93009100027B
:1002F800313011F0039501C00C5F009300020D33FB
:1003080078F00D5300930002613051F0803019F0FD
:10031800853019F004C021E002C02FEF00C0820F21
:100328005F914F911F910F9100933F000F91189586
:00000001FF
