:020000020000FC
:1000000001E200935E000FEF00935D000FEF00939D
:100010000A010093240000E00093000201E0009335
:1000200001020E943E000E94230040910002509174
:100030000102450F409300020E946A00403091F097
:100040004530B1F0EECF609100026030F9F06130E0
:1000500019F1623039F1633059F1643079F165306A
:1000600099F108957091010271E070930102D9CF66
:10007000709101027FEF70930102D3CF0F9300279D
:100080000093250000930B010F91089500910B013F
:1000900000E800930B01E5CF00910B0100E2009313
:1000A0000B01DFCF00910B0108E000930B01D9CFCA
:1000B00000910B0102E000930B01D3CF00910B01E3
:1000C00008E000932500CDCF0091250002E00093C9
:1000D0002500C7CF0F931F932F933F934F935F93A9
:1000E00000E814E82EE130E041E050E0041B150B7D
:1000F000250B350BC9F75F914F913F912F911F91C0
:040100000F910895BE
:00000001FF
