:020000020000FC
:1000000001E200935E000FEF00935D000FEF00939D
:100010000A010093240005E0009306020FEF00930D
:1000200007020E9432000E9449004091060250914E
:1000300007025030A4F00E9451000E946F00450F4B
:1000400040930602403021F40E9460000E9441006B
:10005000453021F40E9451000E944100E4CF0E94EB
:100060006000EBCF0F93E0E0F2E002E00083028358
:1000700008E00183038300E2048300E805830F9115
:1000800008957F93709107027195709307027F9195
:1000900008950F9300270093250000930B010F9103
:1000A00008950F931F9310910602029114302CF4BF
:1000B00000930B010F911F91089500932500FACF33
:1000C0000F931F9310910602019114302CF40093AA
:1000D0000B010F911F91089500932500FACF0F9304
:1000E0001F932F933F934F935F9300E814E82EE103
:1000F00030E041E050E0041B150B250B350BC9F730
:0E0100005F914F913F912F911F910F910895A4
:00000001FF
