:020000020000FC
:040000000C947400E8
:04005C000C94E80018
:1000E80001E200935E000FEF00935D000FEF0093B5
:1000F8000A01009324000E94D90000E0009308023E
:10010800789405E0009306020FEF009307020E941F
:100118009A00409106025091070240301CF00E945C
:10012800B900F7CF0E94C9000C9495000F93E0E046
:10013800F2E002E00083028308E00183038300E227
:10014800048300E805830F9108957F937091070257
:100158007195709307027F9108950F93002700937C
:10016800250000930B010F9108950F931F93109191
:1001780006023197008114302CF400930B010F9183
:100188001F91089500932500FACF0F931F931091A4
:1001980006020081319614302CF400930B010F9164
:1001A8001F91089500932500FACF0F9300E0009364
:1001B800440005E00093450001E000936E0001E073
:1001C800009335000F9108950F9300915F000F93EE
:1001D8001F93009108020395009308020D33B0F0B5
:1001E8000027009308020E94B10040910702509135
:1001F8000602540F50930602503019F401E00093A0
:100208000702453019F40FEF009307021F910F9171
:0802180000935F000F9118959F
:00000001FF
