:020000020000FC
:040000000C947400E8
:04005C000C94A00060
:1000E80001E200935E000FEF00935D000FEF0093B5
:1000F8000A01009324000E94910000E0009301028D
:100108000093000278940E94BB0000910002013025
:1001180019F400E00E94C300F6CF0F9300E00093AB
:10012800440005E00093450001E000936E0001E003
:10013800009335000F9108950F9300915F000F937E
:100148001F93009101020395009301020D3348F0BB
:100158000027009301020091000211E0012700939B
:1001680000021F910F9100935F000F9118950F9354
:1001780000E000930B01009325000F9108950F9361
:10018800003029F0013049F0023069F011C00091C7
:1001980025000260009325000BC000910B01086048
:1001A80000930B0105C000910B01006800930B013F
:0401B8000F91089506
:00000001FF
