:020000020000FC
:040000000C947400E8
:04005C000C94F90007
:1000E80001E200935E000FEF00935D000FEF0093B5
:1000F8000A01009324000E94EA0000E0009308022D
:10010800789405E0009306020FEF009307020E941F
:10011800AD0040910602509107020E94C400450FAD
:1001280050309CF00E94CC00403021F40E94CC005A
:100138000E94BC00453021F40E94DB000E94BC00F4
:10014800409306020E940E01E4CF0E94DB000C944B
:1001580098000F93E0E0F2E002E00083028308E0F9
:100168000183038300E2048300E805830F91089567
:100178007F93709107027195709307027F9108959C
:100188000F9300270093250000930B010F9108950A
:100198000F931F9310910602029114302CF40093D0
:1001A8000B010F911F91089500932500FACF0F932B
:1001B8001F9310910602019114302CF400930B0147
:1001C8000F911F91089500932500FACF0F9300E037
:1001D8000093440005E00093450001E000936E00A1
:1001E80001E0009335000F9108950F9300915F008F
:1001F8000F931F93009108020395009308020D3393
:1002080018F00027009308021F910F9100935F00D8
:100218000F9118950F932F933F934F935F9300E897
:1002280014E82EE130E041E050E0041B150B250BEB
:10023800350B5F914F913F912F911F910F91089529
:00000001FF
