:1000000071C000008EC000008CC000008AC00000DB
:1000100088C0000086C0000084C0000082C00000CC
:1000200080C000007EC000007CC000007AC00000DC
:1000300078C0000076C0000074C0000072C00000EC
:1000400070C000006EC000006CC000006AC00000FC
:1000500068C00000B0C1000064C0000062C00000C1
:1000600060C000005EC000005CC000005AC000001C
:1000700058C0000056C0000054C0000052C000002C
:1000800050C000004EC000004CC000004AC000003C
:1000900048C0000046C0000044C0000042C000004C
:1000A00040C000003EC000003CC000003AC000005C
:1000B00038C0000036C0000034C0000032C000006C
:1000C00030C000002EC000002CC000002AC000007C
:1000D00028C0000026C0000024C0000022C000008C
:1000E00020C0000011241FBECFEFD1E2DEBFCDBF84
:1000F00000E00CBF12E0A0E0B2E0EAECFCE000E0BF
:100100000BBF02C007900D92A233B107D9F722E0CE
:10011000A2E3B2E001C01D92AE34B207E1F7C9D24A
:10012000D2C56ECFE2E0F1E090819F7E908388237C
:100130001CF4908190619083E2E0F1E09081977FE0
:10014000908386FF03C0908198609083739885FDAB
:10015000739AA59884FDA59AE2E0F1E0808180641D
:10016000808385E08A95F1F7000080818F7B808312
:100170000895CF93C82FE2E0F1E080818F7D8083E6
:100180008C2FD0DF8C2F8295807FCCDF87EC90E0A6
:100190000197F1F700C00000C43018F0C03850F0EB
:1001A00007C08FE39FE10197F1F700C00000C0E8AE
:1001B000C0930002CF910895CF93C82FE2E0F1E001
:1001C0008081806280838C2FADDF8C2F8295807F31
:1001D000A9DF87EC90E00197F1F700C00000809163
:1001E00000028F5F80930002803921F0803D21F46E
:1001F00080E801C080ECBDDFCF910895CF93DF93FD
:10020000EC018881882329F02196D6DF899181111C
:10021000FCCFDF91CF9108959D9A6B9AE1E0F1E0D8
:10022000808188608083808180618083808180621A
:100230008083808180648083E2E0F1E080818F7B35
:10024000808380818F7D80838FE59AEE0197F1F71F
:1002500000C0000080E366DF8FE090E40197F1F7D3
:1002600000C0000080E35EDF8FE891E00197F1F7C6
:1002700000C0000080E356DF87EC90E00197F1F7C3
:1002800000C0000080E24EDF87EC90E00197F1F7BC
:1002900000C0000088E26DDF88E06BDF81E069DF8D
:1002A00086E067DF8CE065CF089580913C029091F5
:1002B0003D02019690933D0280933C02099769F4B8
:1002C00080913A0290913B02019690933B02809379
:1002D0003A0210923D0210923C0280913A029091B3
:1002E0003B02099769F48091380290913902019696
:1002F000909339028093380210923B0210923A0296
:100300008091380290913902069769F48091360203
:1003100090913702019690933702809336021092A3
:100320003902109238028091360290913702099773
:1003300069F48091340290913502019690933502D0
:1003400080933402109237021092360208950F9370
:100350001F93CF93DF93CDB7DEB72E970FB6F894E8
:10036000DEBF0FBECDBF1F930F933F932F935F93BD
:100370004F937F936F939F938F9381E092E09F932E
:100380008F938E010F5F1F4F1F930F93C1D180E892
:10039000F0DEC80133DF0FB6F894DEBF0FBECDBF6D
:1003A0002E960FB6F894DEBF0FBECDBFDF91CF9172
:1003B0001F910F9108951F920F920FB60F92112463
:1003C0000BB60F920F931F932F933F934F935F930F
:1003D0006F937F938F939F93AF93BF93EF93FF930D
:1003E00080913E0290913F029C012F5F3F4F283C3D
:1003F00031052CF430933F0220933E021CC0875CF1
:10040000910990933F0280933E024FDF00913C029E
:1004100010913D0220913A0230913B024091380206
:100420005091390260913602709137028091340206
:10043000909135028CDFFF91EF91BF91AF919F9129
:100440008F917F916F915F914F913F912F911F916C
:100450000F910F900BBE0F900FBE0F901F9018952D
:1004600082E080936E0016BC91E095BB84BD83E072
:1004700085BD8CE787BD0895EAE7F0E08081806460
:100480008083808186FDFDCF809178002091790066
:1004900090E0922B089580913302811111C081E088
:1004A0008093330280913202811105C0789481E0FB
:1004B0008093320205C0813019F4F8941092320210
:1004C0002FEF81EE94E0215080409040E1F700C092
:1004D000000008950F931F9310923B0210923A026E
:1004E000109239021092380210923702109236029E
:1004F000109235021092340210923D0210923C028A
:1005000000E010E020E030E040E050E060E070E02B
:1005100080E090E01CDFF894109232021F910F915E
:10052000089580913302811143C081E080933302AA
:1005300080EC1FDE87E492E061DE80913D028F93C4
:1005400080913C028F9380913B028F9380913A027D
:100550008F93809139028F93809138028F9380918D
:1005600037028F93809136028F93809135028F935B
:10057000809134028F9384E192E09F938F9380E483
:1005800092E09F938F93C4D089ECF3DD80E492E0F6
:1005900035DE47E050E060E472E087E492E0A9D005
:1005A0008DB79EB70E960FB6F8949EBF0FBE8DBF47
:1005B0000895CF93DF931F921F921F921F921F9255
:1005C0001F921F921F921F921F92C4E1D2E0DF93ED
:1005D000CF9380E492E09F938F939AD01F921F92C3
:1005E0001F921F921F921F921F921F921F921F9283
:1005F000DF93CF9387E492E09F938F9389D08DB759
:100600009EB74C960FB6F8949EBF0FBE8DBFDF917C
:10061000CF91089580913302811109C081E08093C8
:100620003302C7DF80ECA5DD81E292E0E7CD0895DB
:1006300023DF9C01225331092139310568F471DF30
:100640002FEF84E39CE0215080409040E1F700C010
:1006500000001092330208959C01235C3109293B6C
:10066000310568F4D7DF2FEF84E39CE02150804010
:100670009040E1F700C000001092330208959C0101
:100680002C5731402F3A310510F424CF08958B5266
:1006900092408B3E910560F4FEDE2FEF81EE94E0F8
:1006A000215080409040E1F700C0000010923302DA
:1006B000089587E880937A0080E480937C00ACDD25
:1006C000CFDE00913C0210913D0220913A02309120
:1006D0003B0240913802509139026091360270918C
:1006E0003702809134029091350231DE62DFA0DF63
:1006F000FECFFB01DC014150504048F001900D92CB
:100700000020C9F701C01D9241505040E0F7089504
:100710000F931F93CF93DF93CDB7DEB72E970FB60E
:10072000F894DEBF0FBECDBF0E891F8986E08C8393
:100730001A8309838FEF9FE79E838D83AE01465E08
:100740005F4F688D798DCE01019610D0EF81F885CD
:10075000E00FF11F10822E960FB6F894DEBF0FBE89
:10076000CDBFDF91CF911F910F9108952F923F92AE
:100770004F925F926F927F928F929F92AF92BF92B1
:10078000CF92DF92EF92FF920F931F93CF93DF935D
:10079000CDB7DEB72B970FB6F894DEBF0FBECDBF37
:1007A0006C017B018A01FC0117821682838181FF23
:1007B000BFC1CE0101963C01F6019381F70193FD83
:1007C000859193FF81917F01882309F4ADC1853222
:1007D00039F493FD859193FF81917F01853221F456
:1007E000B60190E0D6D1E8CF912C212C312CFFE13D
:1007F000F315D8F08B3279F038F4803279F0833207
:10080000A1F4232D20611DC08D3261F0803369F485
:10081000232D216016C0832D8260382EE32DE460E5
:100820003E2E2AC0F32DF8601DC037FC2DC020EDF0
:10083000280F2A3040F08E32B9F436FC75C1232DD2
:100840002064322E19C036FE06C08AE0989E200D24
:100850001124922E11C0EAE02E9E200D1124222E8A
:10086000F32DF0623F2E08C08C3621F4832D806872
:10087000382E02C0883641F4F70193FD859193FF2D
:1008800081917F018111B3CF982F9F7D9554933033
:1008900028F40C5F1F4F9FE399830DC0833631F01E
:1008A000833771F0833509F055C020C0F80180818D
:1008B00089830E5F1F4F88248394912C530112C0AB
:1008C0002801F2E04F0E511CF801A080B18036FEE5
:1008D00003C0692D70E002C06FEF7FEFC5014ED1FC
:1008E0004C018201F32DFF773F2E15C0280122E035
:1008F000420E511CF801A080B18036FE03C0692D64
:1009000070E002C06FEF7FEFC5012DD14C01F32DD8
:10091000F0683F2E820133FC19C0822D90E08816CA
:100920009906A0F4B60180E290E033D12A94F5CF85
:10093000F50137FC859137FE81915F01B60190E0AA
:1009400028D121102A9421E0821A9108811491045F
:1009500079F7E1C0843611F0893639F5F80137FEB0
:1009600007C060817181828193810C5F1F4F08C035
:1009700060817181072E000C880B990B0E5F1F4F51
:10098000F32DFF763F2E97FF09C0909580957095C7
:1009900061957F4F8F4F9F4FF0683F2E2AE030E0E8
:1009A000A30133D1882E861844C0853731F4232D16
:1009B0002F7EB22E2AE030E025C0932D997FB92EEC
:1009C0008F36C1F018F4883579F0AEC0803719F051
:1009D000883721F0A9C0E92FE061BE2EB4FE0DC01A
:1009E000FB2DF460BF2E09C034FE0AC0292F2660FB
:1009F000B22E06C028E030E005C020E130E002C0A1
:100A000020E132E0F801B7FE07C060817181828188
:100A100093810C5F1F4F06C06081718180E090E080
:100A20000E5F1F4FA301F1D0882E8618FB2DFF7794
:100A30003F2E36FE0DC0232D2E7FA22E891458F492
:100A400034FE0BC032FC09C0832D8E7EA82E05C05B
:100A5000B82CA32C03C0B82C01C0B92CA4FE0FC025
:100A6000FE01E80DF11D8081803321F49A2D997EDD
:100A7000A92E09C0A2FE06C0B394B39404C08A2D67
:100A8000867809F0B394A3FC10C0A0FE06C0B2148F
:100A900080F4280C922C9B180DC0B21458F4B601A7
:100AA00080E290E076D0B394F8CFB21418F42B180B
:100AB00002C0982C212CA4FE0FC0B60180E390E068
:100AC00068D0A2FE16C0A1FC03C088E790E002C077
:100AD00088E590E0B6010CC08A2D867851F0A1FE21
:100AE00002C08BE201C080E2A7FC8DE2B60190E07B
:100AF00050D0891430F4B60180E390E04AD09A9443
:100B0000F8CF8A94F301E80DF11D8081B60190E0E1
:100B100040D08110F6CF222009F44ECEB60180E2FB
:100B200090E037D02A94F7CFF6018681978102C0F2
:100B30008FEF9FEF2B960FB6F894DEBF0FBECDBFA1
:100B4000DF91CF911F910F91FF90EF90DF90CF90A9
:100B5000BF90AF909F908F907F906F905F904F90DD
:100B60003F902F900895FC01059061507040011056
:100B7000D8F7809590958E0F9F1F0895FC016150C6
:100B8000704001900110D8F7809590958E0F9F1FAF
:100B900008950F931F93CF93DF93FB01238121FDD2
:100BA00003C08FEF9FEF2CC022FF16C046815781F4
:100BB000248135814217530744F4A081B1819D01FE
:100BC0002F5F3F4F318320838C93268137812F5FA6
:100BD0003F4F3783268314C08B01EC01FB01008457
:100BE000F185E02D1995892BE1F6D80116968D91A6
:100BF0009C911797019617969C938E931697CE010A
:100C0000DF91CF911F910F910895FA01AA27283003
:100C100051F1203181F1E8946F936E7F6E5F7F4FC9
:100C20008F4F9F4FAF4FB1E03ED0B4E03CD0670F45
:100C3000781F891F9A1FA11D680F791F8A1F911D98
:100C4000A11D6A0F711D811D911DA11D20D009F4E8
:100C500068943F912AE0269F11243019305D31932A
:100C6000DEF6CF010895462F4770405D4193B3E013
:100C70000FD0C9F7F6CF462F4F70405D4A3318F0BA
:100C8000495D31FD4052419302D0A9F7EACFB4E06B
:100C9000A6959795879577956795BA95C9F7009723
:100CA0006105710508959B01AC010A2E06945795C4
:100CB000479537952795BA95C9F7620F731F841F1B
:0A0CC000951FA01D0895F894FFCFC2
:100CCA008054696D653A20256425643A2564256453
:100CDA003A256400256425643A256425642E256432
:100CEA00002020202020202020202020202020201A
:020CFA002000D8
:00000001FF
