:020000020000FC
:040000000C947400E8
:040054000C94A7025F
:1000E80001E200935E000FEF00935D0000E00093D3
:1000F80002020E94AA010E94B7010E940A0260E05F
:1001080007E800937A0000E000937B0000E4009386
:100118007C0055270E949C0300917A00006400939C
:100128007A0000917A000074E1F7A0917800B0910C
:10013800790022E310E0A217B10700F123EC10E0E8
:10014800A217B107D8F12CE711E0A217B10778F090
:100158002BE212E0A217B10748F126E113E0A2173B
:10016800B10780F050E00E944D020C94900051308D
:1001780099F20E940A0260E00C949000513061F2FA
:100188000C949000513041F251E000E0041731F036
:10019800F89440E00E94BB020C9490000E949502E3
:1001A800789441E00E94BB020C949000513021F0F9
:1001B80051E0F8940E94B7010C949000513029F056
:1001C80051E00E94BB020E94EB000C9490000F9338
:1001D8001F93AF93BF93CF93DF93EF93FF93A3E066
:1001E800B2E0CBE7D2E0603011F00C94470100E3B5
:1001F800099300E309930AE3099300E3099300E3F1
:1002080009930EE2099300E3099300E2099300E2DF
:1002180009930D910E94900209930D910E949002FA
:1002280009930AE309930D910E94900209930D9195
:100238000E94900209930EE209930D910E94900288
:10024800099300E0099301E00F9300E00F930E94E7
:100258006B030F910F9102E00F930BE70F930E942E
:1002680052030F910F91A3E0B2E0E1E7F2E00D91A4
:1002780001930D9101930D9101930D9101930D91AE
:10028800019361E05AC0CBE7D2E0E1E7F2E0A3E0F6
:10029800B2E001910E949002099301910E9490029C
:1002A80009930AE3099301910E949002099301912D
:1002B8000E94900209930EE2099301910E94900214
:1002C800099300E2099300E209930D910E949002BC
:1002D80009930D910E94900209930AE309930D91E5
:1002E8000E94900209930D910E94900209930EE2D8
:1002F80009930D910E949002099300E0099301E08F
:100308000F9300E00F930E946B030F910F9102E08F
:100318000F930BE70F930E9452030F910F91A3E0E5
:10032800B2E0E1E7F2E00D9101930D9101930D9197
:1003380001930D9101930D910193FF91EF91DF913D
:10034800CF91BF91AF911F910F9108950F93E8E05E
:10035800F2E009E00193019305E0019309E00193BC
:1003680001930F9108950F93DF93CF93C3E0D2E0E9
:1003780000E009930993099309930993CF91DF91B9
:100388000F9108950F931F93CF93DF93AF93BF936C
:10039800EF93FF93A7E0B2E0CCE0D2E00C91188194
:1003A800011719F003950C9328C000E00C931197DE
:1003B80021970C911881011719F003950C931DC012
:1003C80000E00C93119721970C911881011719F0EF
:1003D80003950C9312C000E00C93119721970C9190
:1003E8001881011719F003950C9307C000E00C93CE
:1003F800119721970C9103950C93FF91EF91BF9161
:10040800AF91DF91CF911F910F9108950F93AF9303
:10041800BF93CF93DF93EF93FF93CBE7D2E000E254
:10042800099300E2099300E2099300E2099300E2CC
:10043800099300E2099300E2099300E2099300E2BC
:10044800099300E2099300E2099300E2099300E2AC
:10045800099300E2099300E2099300E2099300E09E
:10046800099301E00F9300E00F930E946B030F9133
:100478000F9102E00F930BE70F930E9452030F9125
:100488000F91FF91EF91DF91CF91BF91AF910F91B4
:1004980008950F931F93CF93DF93E3E0F2E0CDE04D
:1004A800D2E004E5099309E409930DE4099305E40E
:1004B80009930AE3099300E2099301910E949002CB
:1004C800099301910E94900209930AE3099301910B
:1004D8000E949002099301910E94900209930EE2F2
:1004E800099301910E949002099300E0099300E0AA
:1004F8000F9300E00F930E946B030F910F9102E09E
:100508000F930DE00F930E9452030F910F91DF910B
:10051800CF911F910F9108951F9310E3010F1F9121
:1005280008950F9302E00093440003E00093450010
:100538000CE70093470002E000936E0001E000938F
:1005480035000F9108950F9300915F000F9300916C
:100558000202039500930202083C19F400270E9446
:10056800C6010F9100935F000F911895FFCF0F936D
:100578001F932F933F934F935F9300E516E420E07A
:1005880030E041E050E0041B150B250B350BC9F793
:100598005F914F913F912F911F910F9108950F9364
:1005A8002F933F93009132000F7D24FD006200934A
:1005B800340000912C00077F25FD086000932E0071
:1005C80000910001077F26FD086000930201009159
:1005D80000010F7E27FD00610093020100910001D8
:1005E80000640093020131E00E942104009100019F
:1005F8000F7B009302013F912F910F9108952F9344
:100608003F930F93DF93CF93DEB7CDB729850E9431
:10061800D30232E30E94210422950E94D30232E3DE
:100628000E942104CF91DF910F913F912F9108955E
:100638000F933F932F93DF93CF93DEB7CDB72985E1
:10064800009100010F7D009302012F930E94030384
:100658002F91243018F432E00E942B04CF91DF91BF
:100668002F913F910F9108950F932F93DF93CF937D
:10067800DEB7CDB728850091000100620093020122
:100688002F930E9403032F91009101020395009379
:100698000102CF91DF912F910F9108950F931F932E
:1006A800DF93CF93FF93EF93DEB7CDB7FB85EA8552
:1006B8001191103029F01F930E9438031F91F8CF31
:1006C800EF91FF91CF91DF911F910F9108950F93B3
:1006D8001F93DF93CF93DEB7CDB708851985113007
:1006E8001CF011E00C947B030F300CF00FE010931A
:1006F800000200930102113019F410EC0C948503E8
:1007080010E8010F0F930E941C030F91CF91DF9106
:100718001F910F9108950F9301E00F930E941C03FE
:100728000F91002700930002009301020F91089592
:100738000F932F933F93009133000062009333008F
:10074800009132000F7D0093340000912D00086065
:1007580000932D0000912C00077F00932E0000913C
:10076800010108600093010100910001077F0093D7
:100778000201009101010061009301010091000153
:100788000F7E0093020100910101006200930101B4
:10079800009100010F7D00930201009101010064A6
:1007A80000930101009100010F7B009302013FE0DB
:1007B8000E942B0435E00E942B0420E30E94D30200
:1007C80035E00E942B0420E30E94D30257E03FE06B
:1007D8000E942B045A95D9F720E30E94D30232E3F2
:1007E8000E94210420E20E94D30232E30E942104E5
:1007F80008E20F930E941C030F9108E00F930E94D8
:100808001C030F9101E00F930E941C030F9132E02B
:100818000E942B0406E00F930E941C030F910CE02A
:100828000F930E941C030F9100270093000200936E
:1008380001023F912F910F9108950F933F9305E087
:100848000A95F1F73A95D9F73F910F9108950F93CB
:100858001F933F93DF93CF930DEF309F012D0295A8
:10086800007FD02F002D0295102F007F1F70C02F02
:10087800D12B2197F1F7CF91DF913F911F910F91E4
:1008880008950F93FF93EF93BF93AF93DF93CF93A5
:10089800DEB7CDB7EB85FC85AD85BE85059100300B
:1008A8000D93E1F7CF91DF91AF91BF91EF91FF9158
:0408B8000F910895FF
:00000001FF
