:020000020000FC
:040000000C947200EA
:04005C000C94F2020C
:1000E40001E200935E000FEF00935D000E94D903CC
:1000F40007E800937A0000E400937C000E94170153
:100104000E94E2000E94F5000E945A0180E090E003
:1001140070E060E000917A00006400937A0000913E
:100124007A000074E1F7A0917800B091790043EC73
:1001340050E04A175B0788F44CE751E04A175B0725
:1001440088F44BE252E04A175B0790F446E153E02F
:100154004A175B0710F560E031C0613079F10E9405
:1001640055022BC0613051F10E945A0170E025C044
:10017400613021F10E949D0191E070E0ABE2B2E0B8
:10018400E5E3F2E00D9101930D9101930D9101933B
:100194000D9101930D91019310C0613079F080307D
:1001A40009F021F40E940801789481E0903009F06C
:1001B40011F491E002C090E000C061E0ABCFFFCF4A
:1001C4000F93AF93BF93A0E3B2E009E30D9309E368
:1001D4000D9305E30D9309E30D9309E30D93BF918B
:1001E400AF910F9108950F93EF93FF93EBE2F2E039
:1001F40000E3019300E3019300E3019300E301931F
:1002040000E30193FF91EF910F9108950F9300E0A4
:100214000093440005E00093450001E000936E0064
:1002240001E0009335000F9108950F93AF93BF93AE
:10023400CF93DF93EF93FF93C3E0D2E004E50993F8
:1002440009E609930DE6099305E609930AE3099380
:1002540000E2099300E3099300E309930AE3099395
:1002640000E3099300E309930EE2099300E3099381
:1002740000E2099300E2099300E2099300E0099384
:1002840000E00F9300E00F930E94A8030F910F91D9
:1002940002E00F9303E00F930E948F030F910F91DD
:1002A400FF91EF91DF91CF91BF91AF910F9108959D
:1002B4000F93AF93BF93CF93DF93EF93FF93C7E174
:1002C400D2E000E2099300E2099300E2099300E21C
:1002D400099300E2099300E2099300E2099300E222
:1002E400099300E2099300E2099300E2099300E212
:1002F400099300E2099300E2099300E2099300E202
:10030400099300E0099301E00F9300E00F930E942A
:10031400A8030F910F9102E00F9307E10F930E943E
:100324008F030F910F91FF91EF91DF91CF91BF91C7
:10033400AF910F9108950F93AF93BF93CF93DF9332
:10034400EF93FF93EBE2F2E0ABE2B2E0C9E0D2E07C
:1003540000E3019300E3019300E3019300E30193BD
:1003640000E301930C910883119621960C91088364
:10037400119622960C910883119621960C9108836C
:10038400119622960C91088300E00F9300E00F93DE
:100394000E94A8030F910F9102E00F9303E00F93C3
:1003A4000E948F030F910F91FF91EF91DF91CF91F5
:1003B400BF91AF910F9108950F931F93CF93DF9344
:1003C400AF93BF93EF93FF93AFE2B2E0C4E3D2E005
:1003D4000C911881011719F00F5F0C9328C000E3EA
:1003E4000C93119721970C911881011719F00F5F45
:1003F4000C931DC000E30C93119721970C91188165
:10040400011719F00F5F0C9312C000E30C931197BE
:1004140021970C911881011719F00F5F0C9307C0F5
:1004240000E30C93119721970C910F5F0C93FF91AC
:10043400EF91BF91AF91DF91CF911F910F910895EB
:100444000F931F93AF93BF93CF93DF93ABE2B2E0CD
:10045400C9E0D2E00C910883119621960C9108838F
:10046400119622960C910883119621960C9108837B
:10047400119622960C91088300E00F9300E00F93ED
:100484000E94A8030F910F9102E00F9303E00F93D2
:100494000E948F030F910F91DF91CF91BF91AF9184
:1004A4001F910F9108950F931F93AF93BF93CF9311
:1004B400DF93EF93FF93ABE2B2E0C7E1D2E0703099
:1004C40011F00C94A50200E3099300E309930AE3F5
:1004D400099300E3099300E309930EE2099300E30F
:1004E400099300E2099300E209930D9109930D9198
:1004F40009930AE309930D9109930D9109930EE26F
:1005040009930D91099301E00F9300E00F930E946A
:10051400A8030F910F9102E00F9307E10F930E943C
:100524008F030F910F91ABE2B2E0E5E3F2E00D919E
:1005340001930D9101930D9101930D9101930D91EF
:10054400019371E044C0C7E1D2E0E5E3F2E0ABE23D
:10055400B2E001910993019109930AE3099301918E
:100564000993019109930EE209930191099300E221
:10057400099300E209930D9109930D9109930AE3FC
:1005840009930D9109930D9109930EE209930D912D
:10059400099301E00F9300E00F930E94A8030F91C9
:1005A4000F9102E00F9307E10F930E948F030F91C5
:1005B4000F91ABE2B2E0E5E3F2E00D9101930D910E
:1005C40001930D9101930D9101930D910193FF916D
:1005D400EF91DF91CF91BF91AF911F910F9108954A
:1005E4000F9300915F000F934F935F93009102026A
:1005F400065F00C0009302020C3348F00C530093D2
:100604000202913021F00E94DE010E9422025F91D9
:100614004F910F9100935F000F9118950F932F93B3
:100624003F93009132000F7D24FD0062009334005B
:1006340000912C00077F25FD086000932E00009197
:100644000001077F26FD086000930201009100016C
:100654000F7E27FD006100930201009100010064F8
:100664000093020131E00E945E04009100010F7BBF
:10067400009302013F912F910F9108952F933F937F
:100684000F93DF93CF93DEB7CDB729850E94100374
:1006940032E30E945E0422950E94100332E30E941A
:1006A4005E04CF91DF910F913F912F9108950F93A5
:1006B4003F932F93DF93CF93DEB7CDB72985009176
:1006C40000010F7D009302012F930E9440032F919C
:1006D400243018F432E00E946804CF91DF912F9106
:1006E4003F910F9108950F932F93DF93CF93DEB72C
:1006F400CDB72885009100010062009302012F9379
:100704000E9440032F91009101020395009301027E
:10071400CF91DF912F910F9108950F931F93DF9342
:10072400CF93FF93EF93DEB7CDB7FB85EA851191A5
:10073400103029F01F930E9475031F91F8CFEF9199
:10074400FF91CF91DF911F910F9108950F931F9304
:10075400DF93CF93DEB7CDB70885198511301CF030
:1007640011E00C94B8030F300CF00FE0109300026A
:1007740000930102113019F410EC0C94C20310E838
:10078400010F0F930E9459030F91CF91DF911F9195
:100794000F9108950F9301E00F930E9459030F9155
:1007A400002700930002009301020F9108950F9314
:1007B4002F933F9300913300006200933300009124
:1007C40032000F7D0093340000912D0008600093E7
:1007D4002D0000912C00077F00932E000091010151
:1007E40008600093010100910001077F009302015A
:1007F40000910101006100930101009100010F7E4D
:100804000093020100910101006200930101009133
:1008140000010F7D00930201009101010064009327
:100824000101009100010F7B009302013FE00E944F
:10083400680435E00E94680420E30E94100335E058
:100844000E94680420E30E94100357E03FE00E94E6
:1008540068045A95D9F720E30E94100332E30E94FA
:100864005E0420E20E94100332E30E945E0408E268
:100874000F930E9459030F9108E00F930E945903AC
:100884000F9101E00F930E9459030F9132E00E94EF
:10089400680406E00F930E9459030F910CE00F9334
:1008A4000E9459030F910027009300020093010254
:1008B4003F912F910F9108950F933F9305E00A956F
:1008C400F1F73A95D9F73F910F9108950F931F933C
:1008D4003F93DF93CF930DEF309F012D0295007F5F
:1008E400D02F002D0295102F007F1F70C02FD12B09
:1008F4002197F1F7CF91DF913F911F910F910895C7
:100904000F93FF93EF93BF93AF93DF93CF93DEB730
:10091400CDB7EB85FC85AD85BE85059100300D9383
:10092400E1F7CF91DF91AF91BF91EF91FF910F91DB
:02093400089524
:00000001FF
