:020000020000FC
:1000000001E200935E000FEF00935D000E9421016A
:10001000C2E0D2E008E4099305E609930CE60993EF
:100020000CE609930FE6099300E2099307E50993AB
:100030000FE6099302E709930CE6099304E6099396
:1000400000E0099300E00F9302E00F930E94F0009C
:100050000F910F9102E00F9302E00F930E94D700DF
:100060000F910F91A2E0B2E0C6E6D2E00E944900F3
:1000700001E00F9300E00F930E94F0000F910F91A9
:1000800002E00F9306E60F930E94D7000F910F91A5
:10009000FFCFAF93BF93CF93DF930F930D9109934E
:1000A0000030E1F70F91DF91CF91BF91AF910895AB
:1000B0000F932F933F93009132000F7D24FD006238
:1000C0000093340000912C00077F25FD0860009309
:1000D0002E0000910001077F26FD086000930201B9
:1000E000009100010F7E27FD006100930201009145
:1000F000000100640093020131E00E94A60100911A
:1001000000010F7B009302013F912F910F91089501
:100110002F933F930F93DF93CF93DEB7CDB729850E
:100120000E94580032E30E94A60122950E945800C6
:1001300032E30E94A601CF91DF910F913F912F9161
:1001400008950F933F932F93DF93CF93DEB7CDB7EF
:100150002985009100010F7D009302012F930E94D9
:1001600088002F91243018F432E00E94B001CF9122
:10017000DF912F913F910F9108950F932F93DF936C
:10018000CF93DEB7CDB728850091000100620093C0
:1001900002012F930E9488002F9100910102039584
:1001A00000930102CF91DF912F910F9108950F934A
:1001B0001F93DF93CF93FF93EF93DEB7CDB7FB850C
:1001C000EA851191103029F01F930E94BD001F9104
:1001D000F8CFEF91FF91CF91DF911F910F9108958B
:1001E0000F931F93DF93CF93DEB7CDB708851985A3
:1001F00011301CF011E00C9400010F300CF00FE0F6
:100200001093000200930102113019F410EC0C94C9
:100210000A0110E8010F0F930E94A1000F91CF91E6
:10022000DF911F910F9108950F9301E00F930E94AA
:10023000A1000F91002700930002009301020F918B
:1002400008950F932F933F93009133000062009322
:100250003300009132000F7D0093340000912D0097
:10026000086000932D0000912C00077F00932E0062
:100270000091010108600093010100910001077FD6
:1002800000930201009101010061009301010091BE
:1002900000010F7E009302010091010100620093B2
:1002A0000101009100010F7D009302010091010105
:1002B000006400930101009100010F7B0093020193
:1002C0003FE00E94B00135E00E94B00120E30E94AF
:1002D000580035E00E94B00120E30E94580057E02A
:1002E0003FE00E94B0015A95D9F720E30E945800E0
:1002F00032E30E94A60120E20E94580032E30E94ED
:10030000A60108E20F930E94A1000F9108E00F934D
:100310000E94A1000F9101E00F930E94A1000F9194
:1003200032E00E94B00106E00F930E94A1000F91FD
:100330000CE00F930E94A1000F9100270093000290
:10034000009301023F912F910F9108950F933F93D6
:1003500005E00A95F1F73A95D9F73F910F91089585
:100360000F931F933F93DF93CF930DEF309F012D9A
:100370000295007FD02F002D0295102F007F1F7057
:10038000C02FD12B2197F1F7CF91DF913F911F9192
:100390000F9108950F93FF93EF93BF93AF93DF9364
:1003A000CF93DEB7CDB7EB85FC85AD85BE850591D6
:1003B00000300D93E1F7CF91DF91AF91BF91EF91B5
:0603C000FF910F9108956A
:00000001FF
