:020000020000FC
:040000000C947400E8
:040054000C94A30065
:1000E80001E200935E000FEF00935D000FEF0093B5
:1000F8000A01009324000E94910000E0009301028D
:100108000093000278940E94BA0000910002013026
:1001180019F400E00E94C200F6CF0F9302E00093AA
:10012800440005E0009345000CE70093470002E017
:1001380000936E0001E0009335000F9108950F932E
:1001480000915F000F931F930091010203950093A4
:10015800010231F40091000211E00127009300022E
:100168001F910F9100935F000F9118950F9300E076
:1001780000930B01009325000F9108950F93003011
:1001880029F0013049F0023069F011C000912500D2
:100198000260009325000BC000910B0108600093DA
:1001A8000B0105C000910B01006800930B010F9132
:0201B8000895A8
:00000001FF
