:020000020000FC
:040000000C947200EA
:04005C000C942D01D2
:1000E40001E200935E000FEF00935D000E941E0189
:1000F40000E00093000278940E9486000E9493001E
:100104000E94A2000E94E5000F93E6E0F2E009E0FD
:100114000193019305E0019309E0019301930F9189
:1001240008950F93DF93CF93C1E0D2E001E00993E8
:100134000993099309930993CF91DF910F9108953E
:100144001F93CF93DF93AF93BF93EF93FF93A5E0F8
:10015400B2E0CAE0D2E00C911881011719F00F5FE8
:100164000C9328C000E30C93119721970C911881EC
:10017400011719F00F5F0C931DC000E30C93119746
:1001840021970C911881011719F00F5F0C9312C07D
:1001940000E30C93119721970C911881011719F022
:1001A4000F5F0C9307C000E30C93119721970C91F8
:1001B4000F5F0C93FF91EF91BF91AF91DF91CF91BE
:1001C4001F910F9108950F931F93AF93BF93CF93F4
:1001D400DF93E1E0F2E0CBE0D2E004E5099309E447
:1001E40009930DE4099305E409930AE3099300E2F2
:1001F400099301910993019109930AE309930191E8
:100204000993019109930EE209930191099300E383
:10021400099300E00F9300E00F930F910F9102E018
:100224000F930BE00F930F910F91DF91CF91BF913B
:10023400AF911F910F9108950F9300E00093440034
:1002440005E00093450001E000936E0001E0009397
:1002540035000F9108950F9300915F000F931F9342
:10026400009100020395009300020D3318F000275B
:10027400009300021F910F9100935F000F91189556
:02028400FFCFAA
:00000001FF
